{
  "contractName": "Adoption",
  "abi": [
    {
      "constant": true,
      "inputs": [
        {
          "internalType": "uint256",
          "name": "",
          "type": "uint256"
        }
      ],
      "name": "productIds",
      "outputs": [
        {
          "internalType": "uint256",
          "name": "",
          "type": "uint256"
        }
      ],
      "payable": false,
      "stateMutability": "view",
      "type": "function"
    },
    {
      "constant": false,
      "inputs": [
        {
          "internalType": "uint256",
          "name": "prodId",
          "type": "uint256"
        },
        {
          "internalType": "string",
          "name": "pname",
          "type": "string"
        },
        {
          "internalType": "string",
          "name": "pstatus",
          "type": "string"
        },
        {
          "internalType": "string",
          "name": "pcurLoc",
          "type": "string"
        }
      ],
      "name": "addProduct",
      "outputs": [
        {
          "internalType": "uint256",
          "name": "",
          "type": "uint256"
        }
      ],
      "payable": false,
      "stateMutability": "nonpayable",
      "type": "function"
    },
    {
      "constant": true,
      "inputs": [],
      "name": "getAdopters",
      "outputs": [
        {
          "internalType": "uint256[16]",
          "name": "",
          "type": "uint256[16]"
        }
      ],
      "payable": false,
      "stateMutability": "view",
      "type": "function"
    },
    {
      "constant": true,
      "inputs": [
        {
          "internalType": "uint256",
          "name": "prodId",
          "type": "uint256"
        }
      ],
      "name": "getProductDetail",
      "outputs": [
        {
          "internalType": "string",
          "name": "",
          "type": "string"
        },
        {
          "internalType": "string",
          "name": "",
          "type": "string"
        },
        {
          "internalType": "string",
          "name": "",
          "type": "string"
        }
      ],
      "payable": false,
      "stateMutability": "view",
      "type": "function"
    }
  ],
  "bytecode": "0x608060405234801561001057600080fd5b50610913806100206000396000f3fe608060405234801561001057600080fd5b506004361061004c5760003560e01c80633de4eb17146100515780635ddc949c14610097578063c1393d2714610216578063cb51bba91461041d575b600080fd5b61005961045f565b6040518082601060200280838360005b83811015610084578082015181840152602081019050610069565b5050505090500191505060405180910390f35b6100c3600480360360208110156100ad57600080fd5b81019080803590602001909291905050506104aa565b60405180806020018060200180602001848103845287818151815260200191508051906020019080838360005b8381101561010b5780820151818401526020810190506100f0565b50505050905090810190601f1680156101385780820380516001836020036101000a031916815260200191505b50848103835286818151815260200191508051906020019080838360005b83811015610171578082015181840152602081019050610156565b50505050905090810190601f16801561019e5780820380516001836020036101000a031916815260200191505b50848103825285818151815260200191508051906020019080838360005b838110156101d75780820151818401526020810190506101bc565b50505050905090810190601f1680156102045780820380516001836020036101000a031916815260200191505b50965050505050505060405180910390f35b6104076004803603608081101561022c57600080fd5b81019080803590602001909291908035906020019064010000000081111561025357600080fd5b82018360208201111561026557600080fd5b8035906020019184600183028401116401000000008311171561028757600080fd5b91908080601f016020809104026020016040519081016040528093929190818152602001838380828437600081840152601f19601f820116905080830192505050505050509192919290803590602001906401000000008111156102ea57600080fd5b8201836020820111156102fc57600080fd5b8035906020019184600183028401116401000000008311171561031e57600080fd5b91908080601f016020809104026020016040519081016040528093929190818152602001838380828437600081840152601f19601f8201169050808301925050505050505091929192908035906020019064010000000081111561038157600080fd5b82018360208201111561039357600080fd5b803590602001918460018302840111640100000000831117156103b557600080fd5b91908080601f016020809104026020016040519081016040528093929190818152602001838380828437600081840152601f19601f8201169050808301925050505050505091929192905050506106da565b6040518082815260200191505060405180910390f35b6104496004803603602081101561043357600080fd5b81019080803590602001909291905050506107fe565b6040518082815260200191505060405180910390f35b610467610816565b60006010806020026040519081016040528092919082601080156104a0576020028201915b81548152602001906001019080831161048c575b5050505050905090565b606080606080601060008681526020019081526020016000206000018054600181600116156101000203166002900480601f01602080910402602001604051908101604052809291908181526020018280546001816001161561010002031660029004801561055a5780601f1061052f5761010080835404028352916020019161055a565b820191906000526020600020905b81548152906001019060200180831161053d57829003601f168201915b505050505090506060601060008781526020019081526020016000206001018054600181600116156101000203166002900480601f01602080910402602001604051908101604052809291908181526020018280546001816001161561010002031660029004801561060d5780601f106105e25761010080835404028352916020019161060d565b820191906000526020600020905b8154815290600101906020018083116105f057829003601f168201915b505050505090506060601060008881526020019081526020016000206003018054600181600116156101000203166002900480601f0160208091040260200160405190810160405280929190818152602001828054600181600116156101000203166002900480156106c05780601f10610695576101008083540402835291602001916106c0565b820191906000526020600020905b8154815290600101906020018083116106a357829003601f168201915b505050505090508282829550955095505050509193909250565b60008085101580156106ed5750600f8511155b61075f576040517f08c379a000000000000000000000000000000000000000000000000000000000815260040180806020018281038252600d8152602001807f676f20686f6d652073696d6f6e0000000000000000000000000000000000000081525060200191505060405180910390fd5b83601060008781526020019081526020016000206000019080519060200190610789929190610839565b50826010600087815260200190815260200160002060010190805190602001906107b4929190610839565b50816010600087815260200190815260200160002060030190805190602001906107df929190610839565b5084600086601081106107ee57fe5b0181905550849050949350505050565b6000816010811061080b57fe5b016000915090505481565b604051806102000160405280601090602082028038833980820191505090505090565b828054600181600116156101000203166002900490600052602060002090601f016020900481019282601f1061087a57805160ff19168380011785556108a8565b828001600101855582156108a8579182015b828111156108a757825182559160200191906001019061088c565b5b5090506108b591906108b9565b5090565b6108db91905b808211156108d75760008160009055506001016108bf565b5090565b9056fea265627a7a723158202d3414a42896de38cb802f2b107c6e0a3b272a4e2a4b6c030c5a02d244e37e4d64736f6c63430005100032",
  "source": "pragma solidity ^0.5.0;\r\n\r\ncontract Adoption {\r\nuint[16] public productIds;\r\n\r\nstruct Data{\r\n  string name;\r\n  string status;\r\n  bytes32 hash_value;\r\n  string curLoc;\r\n}\r\n\r\nmapping(uint => Data) prod;\r\n\r\n// Adding a product\r\nfunction addProduct(uint prodId,string memory pname,string memory pstatus,string memory pcurLoc) public returns (uint) {\r\n  require(prodId >= 0 && prodId <= 15,\"go home simon\");\r\n  prod[prodId].name = pname;\r\n  prod[prodId].status = pstatus;\r\n  prod[prodId].curLoc = pcurLoc;\r\n\r\n  productIds[prodId] = prodId;\r\n  \r\n\r\n  return prodId;\r\n}\r\n\r\n// Retrieving the adopters\r\nfunction getAdopters() public view returns (uint[16] memory) {\r\n  return productIds;\r\n}\r\n\r\nfunction getProductDetail(uint prodId) public view returns (string memory,string memory,string memory) {\r\n  string memory prod_name = prod[prodId].name;\r\n  string memory prod_status = prod[prodId].status;\r\n  string memory prod_curLoc = prod[prodId].curLoc;\r\n  return (prod_name,prod_status,prod_curLoc);\r\n}\r\n\r\n\r\n}",
  "sourcePath": "D:\\ms\\SUBJECTS\\bc\\major\\pet-shop-box\\contracts\\Adoption.sol",
  "compiler": {
    "name": "solc",
    "version": "0.5.16+commit.9c3226ce.Emscripten.clang"
  },
  "schemaVersion": "3.0.23",
  "updatedAt": "2020-02-28T21:43:16.451Z",
  "networkType": "ethereum",
  "devdoc": {
    "methods": {}
  },
  "userdoc": {
    "methods": {}
  }
}